{
  "_format": "hh-sol-artifact-1",
  "contractName": "MultiSigWallet",
  "sourceName": "contracts/MultiSigWallet.sol",
  "abi": [
    {
      "inputs": [
        {
          "internalType": "address[]",
          "name": "_owners",
          "type": "address[]"
        },
        {
          "internalType": "uint256",
          "name": "_required",
          "type": "uint256"
        }
      ],
      "stateMutability": "nonpayable",
      "type": "constructor"
    },
    {
      "anonymous": false,
      "inputs": [
        {
          "indexed": true,
          "internalType": "address",
          "name": "owner",
          "type": "address"
        },
        {
          "indexed": true,
          "internalType": "uint256",
          "name": "txId",
          "type": "uint256"
        }
      ],
      "name": "Approve",
      "type": "event"
    },
    {
      "anonymous": false,
      "inputs": [
        {
          "indexed": true,
          "internalType": "address",
          "name": "sender",
          "type": "address"
        },
        {
          "indexed": false,
          "internalType": "uint256",
          "name": "amount",
          "type": "uint256"
        }
      ],
      "name": "Deposit",
      "type": "event"
    },
    {
      "anonymous": false,
      "inputs": [
        {
          "indexed": true,
          "internalType": "uint256",
          "name": "txId",
          "type": "uint256"
        }
      ],
      "name": "Execute",
      "type": "event"
    },
    {
      "anonymous": false,
      "inputs": [
        {
          "indexed": true,
          "internalType": "address",
          "name": "owner",
          "type": "address"
        },
        {
          "indexed": true,
          "internalType": "uint256",
          "name": "txId",
          "type": "uint256"
        }
      ],
      "name": "Reject",
      "type": "event"
    },
    {
      "anonymous": false,
      "inputs": [
        {
          "indexed": true,
          "internalType": "address",
          "name": "owner",
          "type": "address"
        },
        {
          "indexed": true,
          "internalType": "uint256",
          "name": "txId",
          "type": "uint256"
        }
      ],
      "name": "Revoke",
      "type": "event"
    },
    {
      "anonymous": false,
      "inputs": [
        {
          "indexed": true,
          "internalType": "uint256",
          "name": "txId",
          "type": "uint256"
        }
      ],
      "name": "Submit",
      "type": "event"
    },
    {
      "inputs": [
        {
          "internalType": "uint256",
          "name": "",
          "type": "uint256"
        },
        {
          "internalType": "address",
          "name": "",
          "type": "address"
        }
      ],
      "name": "approval",
      "outputs": [
        {
          "internalType": "enum MultiSigWallet.Approval",
          "name": "",
          "type": "uint8"
        }
      ],
      "stateMutability": "view",
      "type": "function"
    },
    {
      "inputs": [
        {
          "internalType": "uint256",
          "name": "_txId",
          "type": "uint256"
        }
      ],
      "name": "approve",
      "outputs": [],
      "stateMutability": "nonpayable",
      "type": "function"
    },
    {
      "inputs": [
        {
          "internalType": "uint256",
          "name": "_txId",
          "type": "uint256"
        }
      ],
      "name": "execute",
      "outputs": [],
      "stateMutability": "nonpayable",
      "type": "function"
    },
    {
      "inputs": [],
      "name": "getTransactions",
      "outputs": [
        {
          "components": [
            {
              "internalType": "uint256",
              "name": "idx",
              "type": "uint256"
            },
            {
              "internalType": "address",
              "name": "to",
              "type": "address"
            },
            {
              "internalType": "uint256",
              "name": "value",
              "type": "uint256"
            },
            {
              "internalType": "bytes",
              "name": "data",
              "type": "bytes"
            },
            {
              "internalType": "enum MultiSigWallet.Status",
              "name": "status",
              "type": "uint8"
            }
          ],
          "internalType": "struct MultiSigWallet.Transaction[]",
          "name": "",
          "type": "tuple[]"
        }
      ],
      "stateMutability": "view",
      "type": "function"
    },
    {
      "inputs": [
        {
          "internalType": "address",
          "name": "",
          "type": "address"
        }
      ],
      "name": "isOwner",
      "outputs": [
        {
          "internalType": "bool",
          "name": "",
          "type": "bool"
        }
      ],
      "stateMutability": "view",
      "type": "function"
    },
    {
      "inputs": [
        {
          "internalType": "uint256",
          "name": "",
          "type": "uint256"
        }
      ],
      "name": "owners",
      "outputs": [
        {
          "internalType": "address",
          "name": "",
          "type": "address"
        }
      ],
      "stateMutability": "view",
      "type": "function"
    },
    {
      "inputs": [
        {
          "internalType": "uint256",
          "name": "_txId",
          "type": "uint256"
        }
      ],
      "name": "reject",
      "outputs": [],
      "stateMutability": "nonpayable",
      "type": "function"
    },
    {
      "inputs": [],
      "name": "required",
      "outputs": [
        {
          "internalType": "uint256",
          "name": "",
          "type": "uint256"
        }
      ],
      "stateMutability": "view",
      "type": "function"
    },
    {
      "inputs": [
        {
          "internalType": "uint256",
          "name": "_txId",
          "type": "uint256"
        }
      ],
      "name": "revoke",
      "outputs": [],
      "stateMutability": "nonpayable",
      "type": "function"
    },
    {
      "inputs": [
        {
          "internalType": "address",
          "name": "_to",
          "type": "address"
        },
        {
          "internalType": "uint256",
          "name": "_value",
          "type": "uint256"
        },
        {
          "internalType": "bytes",
          "name": "_data",
          "type": "bytes"
        }
      ],
      "name": "submit",
      "outputs": [],
      "stateMutability": "nonpayable",
      "type": "function"
    },
    {
      "inputs": [
        {
          "internalType": "uint256",
          "name": "",
          "type": "uint256"
        }
      ],
      "name": "transactions",
      "outputs": [
        {
          "internalType": "uint256",
          "name": "idx",
          "type": "uint256"
        },
        {
          "internalType": "address",
          "name": "to",
          "type": "address"
        },
        {
          "internalType": "uint256",
          "name": "value",
          "type": "uint256"
        },
        {
          "internalType": "bytes",
          "name": "data",
          "type": "bytes"
        },
        {
          "internalType": "enum MultiSigWallet.Status",
          "name": "status",
          "type": "uint8"
        }
      ],
      "stateMutability": "view",
      "type": "function"
    },
    {
      "stateMutability": "payable",
      "type": "receive"
    }
  ],
  "bytecode": "0x60806040523480156200001157600080fd5b50604051620029bd380380620029bd83398181016040528101906200003791906200050e565b60008251116200007e576040517f08c379a00000000000000000000000000000000000000000000000000000000081526004016200007590620005d5565b60405180910390fd5b60008111801562000090575081518111155b620000d2576040517f08c379a0000000000000000000000000000000000000000000000000000000008152600401620000c99062000647565b60405180910390fd5b60005b8251811015620002d5576000838281518110620000f757620000f662000669565b5b60200260200101519050600073ffffffffffffffffffffffffffffffffffffffff168173ffffffffffffffffffffffffffffffffffffffff16141562000174576040517f08c379a00000000000000000000000000000000000000000000000000000000081526004016200016b90620006e8565b60405180910390fd5b600160008273ffffffffffffffffffffffffffffffffffffffff1673ffffffffffffffffffffffffffffffffffffffff16815260200190815260200160002060009054906101000a900460ff161562000204576040517f08c379a0000000000000000000000000000000000000000000000000000000008152600401620001fb906200075a565b60405180910390fd5b60018060008373ffffffffffffffffffffffffffffffffffffffff1673ffffffffffffffffffffffffffffffffffffffff16815260200190815260200160002060006101000a81548160ff0219169083151502179055506000819080600181540180825580915050600190039060005260206000200160009091909190916101000a81548173ffffffffffffffffffffffffffffffffffffffff021916908373ffffffffffffffffffffffffffffffffffffffff160217905550508080620002cc90620007ab565b915050620000d5565b50806002819055505050620007f9565b6000604051905090565b600080fd5b600080fd5b600080fd5b6000601f19601f8301169050919050565b7f4e487b7100000000000000000000000000000000000000000000000000000000600052604160045260246000fd5b6200034982620002fe565b810181811067ffffffffffffffff821117156200036b576200036a6200030f565b5b80604052505050565b600062000380620002e5565b90506200038e82826200033e565b919050565b600067ffffffffffffffff821115620003b157620003b06200030f565b5b602082029050602081019050919050565b600080fd5b600073ffffffffffffffffffffffffffffffffffffffff82169050919050565b6000620003f482620003c7565b9050919050565b6200040681620003e7565b81146200041257600080fd5b50565b6000815190506200042681620003fb565b92915050565b6000620004436200043d8462000393565b62000374565b90508083825260208201905060208402830185811115620004695762000468620003c2565b5b835b8181101562000496578062000481888262000415565b8452602084019350506020810190506200046b565b5050509392505050565b600082601f830112620004b857620004b7620002f9565b5b8151620004ca8482602086016200042c565b91505092915050565b6000819050919050565b620004e881620004d3565b8114620004f457600080fd5b50565b6000815190506200050881620004dd565b92915050565b60008060408385031215620005285762000527620002ef565b5b600083015167ffffffffffffffff811115620005495762000548620002f4565b5b6200055785828601620004a0565b92505060206200056a85828601620004f7565b9150509250929050565b600082825260208201905092915050565b7f4174206c65617374206f6e65206f776e65722069732072657175697265640000600082015250565b6000620005bd601e8362000574565b9150620005ca8262000585565b602082019050919050565b60006020820190508181036000830152620005f081620005ae565b9050919050565b7f496e76616c6964206e756d626572206f66206f776e6572730000000000000000600082015250565b60006200062f60188362000574565b91506200063c82620005f7565b602082019050919050565b60006020820190508181036000830152620006628162000620565b9050919050565b7f4e487b7100000000000000000000000000000000000000000000000000000000600052603260045260246000fd5b7f4f776e65722063616e6e6f7420626520746865207a65726f2061646472657373600082015250565b6000620006d060208362000574565b9150620006dd8262000698565b602082019050919050565b600060208201905081810360008301526200070381620006c1565b9050919050565b7f4f776e65722063616e6e6f742062652061206475706c69636174650000000000600082015250565b600062000742601b8362000574565b91506200074f826200070a565b602082019050919050565b60006020820190508181036000830152620007758162000733565b9050919050565b7f4e487b7100000000000000000000000000000000000000000000000000000000600052601160045260246000fd5b6000620007b882620004d3565b91507fffffffffffffffffffffffffffffffffffffffffffffffffffffffffffffffff821415620007ee57620007ed6200077c565b5b600182019050919050565b6121b480620008096000396000f3fe6080604052600436106100a05760003560e01c80639ace38c2116100645780639ace38c2146101f1578063b759f95414610232578063b848de351461025b578063b8adaa1114610298578063dc8452cd146102c1578063fe0d94c1146102ec576100f5565b8063025e7c27146100fa57806314de327f1461013757806320c5429b146101605780632f54bf6e1461018957806383920e90146101c6576100f5565b366100f5573373ffffffffffffffffffffffffffffffffffffffff167fe1fffcc4923d04b559f4d29a8bfc6cda04eb5b0d3c460751c2402c5c5cc9109c346040516100eb91906115a5565b60405180910390a2005b600080fd5b34801561010657600080fd5b50610121600480360381019061011c91906115f6565b610315565b60405161012e9190611664565b60405180910390f35b34801561014357600080fd5b5061015e60048036038101906101599190611710565b610354565b005b34801561016c57600080fd5b50610187600480360381019061018291906115f6565b610592565b005b34801561019557600080fd5b506101b060048036038101906101ab9190611784565b610886565b6040516101bd91906117cc565b60405180910390f35b3480156101d257600080fd5b506101db6108a6565b6040516101e89190611a4d565b60405180910390f35b3480156101fd57600080fd5b50610218600480360381019061021391906115f6565b610a3c565b604051610229959493929190611ac8565b60405180910390f35b34801561023e57600080fd5b50610259600480360381019061025491906115f6565b610b37565b005b34801561026757600080fd5b50610282600480360381019061027d9190611b22565b610e2e565b60405161028f9190611baa565b60405180910390f35b3480156102a457600080fd5b506102bf60048036038101906102ba91906115f6565b610e5d565b005b3480156102cd57600080fd5b506102d6611153565b6040516102e391906115a5565b60405180910390f35b3480156102f857600080fd5b50610313600480360381019061030e91906115f6565b611159565b005b6000818154811061032557600080fd5b906000526020600020016000915054906101000a900473ffffffffffffffffffffffffffffffffffffffff1681565b600160003373ffffffffffffffffffffffffffffffffffffffff1673ffffffffffffffffffffffffffffffffffffffff16815260200190815260200160002060009054906101000a900460ff166103e0576040517f08c379a00000000000000000000000000000000000000000000000000000000081526004016103d790611c22565b60405180910390fd5b60036040518060a0016040528060038054905081526020018673ffffffffffffffffffffffffffffffffffffffff16815260200185815260200184848080601f016020809104026020016040519081016040528093929190818152602001838380828437600081840152601f19601f82011690508083019250505050505050815260200160006002811115610478576104776118ca565b5b81525090806001815401808255809150506001900390600052602060002090600502016000909190919091506000820151816000015560208201518160010160006101000a81548173ffffffffffffffffffffffffffffffffffffffff021916908373ffffffffffffffffffffffffffffffffffffffff16021790555060408201518160020155606082015181600301908051906020019061051b9291906114e9565b5060808201518160040160006101000a81548160ff02191690836002811115610547576105466118ca565b5b0217905550505060016003805490506105609190611c71565b7f08324b3d745b914e3abd4ffbfead91e3b78391a98c173202129215ab933adfbe60405160405180910390a250505050565b600160003373ffffffffffffffffffffffffffffffffffffffff1673ffffffffffffffffffffffffffffffffffffffff16815260200190815260200160002060009054906101000a900460ff1661061e576040517f08c379a000000000000000000000000000000000000000000000000000000000815260040161061590611c22565b60405180910390fd5b806003805490508110610666576040517f08c379a000000000000000000000000000000000000000000000000000000000815260040161065d90611cf1565b60405180910390fd5b816000600281111561067b5761067a6118ca565b5b6003828154811061068f5761068e611d11565b5b906000526020600020906005020160040160009054906101000a900460ff1660028111156106c0576106bf6118ca565b5b14610700576040517f08c379a00000000000000000000000000000000000000000000000000000000081526004016106f790611d8c565b60405180910390fd5b60016002811115610714576107136118ca565b5b6004600085815260200190815260200160002060003373ffffffffffffffffffffffffffffffffffffffff1673ffffffffffffffffffffffffffffffffffffffff16815260200190815260200160002060009054906101000a900460ff166002811115610784576107836118ca565b5b146107c4576040517f08c379a00000000000000000000000000000000000000000000000000000000081526004016107bb90611df8565b60405180910390fd5b60006004600085815260200190815260200160002060003373ffffffffffffffffffffffffffffffffffffffff1673ffffffffffffffffffffffffffffffffffffffff16815260200190815260200160002060006101000a81548160ff02191690836002811115610838576108376118ca565b5b0217905550823373ffffffffffffffffffffffffffffffffffffffff167fec9ab91322523c899ede7830ec9bfc992b5981cdcc27b91162fb23de5791117b60405160405180910390a3505050565b60016020528060005260406000206000915054906101000a900460ff1681565b60606003805480602002602001604051908101604052809291908181526020016000905b82821015610a3357838290600052602060002090600502016040518060a0016040529081600082015481526020016001820160009054906101000a900473ffffffffffffffffffffffffffffffffffffffff1673ffffffffffffffffffffffffffffffffffffffff1673ffffffffffffffffffffffffffffffffffffffff1681526020016002820154815260200160038201805461096790611e47565b80601f016020809104026020016040519081016040528092919081815260200182805461099390611e47565b80156109e05780601f106109b5576101008083540402835291602001916109e0565b820191906000526020600020905b8154815290600101906020018083116109c357829003601f168201915b505050505081526020016004820160009054906101000a900460ff166002811115610a0e57610a0d6118ca565b5b6002811115610a2057610a1f6118ca565b5b81525050815260200190600101906108ca565b50505050905090565b60038181548110610a4c57600080fd5b90600052602060002090600502016000915090508060000154908060010160009054906101000a900473ffffffffffffffffffffffffffffffffffffffff1690806002015490806003018054610aa190611e47565b80601f0160208091040260200160405190810160405280929190818152602001828054610acd90611e47565b8015610b1a5780601f10610aef57610100808354040283529160200191610b1a565b820191906000526020600020905b815481529060010190602001808311610afd57829003601f168201915b5050505050908060040160009054906101000a900460ff16905085565b600160003373ffffffffffffffffffffffffffffffffffffffff1673ffffffffffffffffffffffffffffffffffffffff16815260200190815260200160002060009054906101000a900460ff16610bc3576040517f08c379a0000000000000000000000000000000000000000000000000000000008152600401610bba90611c22565b60405180910390fd5b806003805490508110610c0b576040517f08c379a0000000000000000000000000000000000000000000000000000000008152600401610c0290611cf1565b60405180910390fd5b8160016002811115610c2057610c1f6118ca565b5b6004600083815260200190815260200160002060003373ffffffffffffffffffffffffffffffffffffffff1673ffffffffffffffffffffffffffffffffffffffff16815260200190815260200160002060009054906101000a900460ff166002811115610c9057610c8f6118ca565b5b1415610cd1576040517f08c379a0000000000000000000000000000000000000000000000000000000008152600401610cc890611ec5565b60405180910390fd5b8260006002811115610ce657610ce56118ca565b5b60038281548110610cfa57610cf9611d11565b5b906000526020600020906005020160040160009054906101000a900460ff166002811115610d2b57610d2a6118ca565b5b14610d6b576040517f08c379a0000000000000000000000000000000000000000000000000000000008152600401610d6290611d8c565b60405180910390fd5b60016004600086815260200190815260200160002060003373ffffffffffffffffffffffffffffffffffffffff1673ffffffffffffffffffffffffffffffffffffffff16815260200190815260200160002060006101000a81548160ff02191690836002811115610ddf57610dde6118ca565b5b0217905550833373ffffffffffffffffffffffffffffffffffffffff167f90ec57f18fa7b15c6b8d5e4d1deb90796c74b2ff23d4d0cecad0cb42a96b312860405160405180910390a350505050565b60046020528160005260406000206020528060005260406000206000915091509054906101000a900460ff1681565b600160003373ffffffffffffffffffffffffffffffffffffffff1673ffffffffffffffffffffffffffffffffffffffff16815260200190815260200160002060009054906101000a900460ff16610ee9576040517f08c379a0000000000000000000000000000000000000000000000000000000008152600401610ee090611c22565b60405180910390fd5b806003805490508110610f31576040517f08c379a0000000000000000000000000000000000000000000000000000000008152600401610f2890611cf1565b60405180910390fd5b81600280811115610f4557610f446118ca565b5b6004600083815260200190815260200160002060003373ffffffffffffffffffffffffffffffffffffffff1673ffffffffffffffffffffffffffffffffffffffff16815260200190815260200160002060009054906101000a900460ff166002811115610fb557610fb46118ca565b5b1415610ff6576040517f08c379a0000000000000000000000000000000000000000000000000000000008152600401610fed90611f31565b60405180910390fd5b826000600281111561100b5761100a6118ca565b5b6003828154811061101f5761101e611d11565b5b906000526020600020906005020160040160009054906101000a900460ff1660028111156110505761104f6118ca565b5b14611090576040517f08c379a000000000000000000000000000000000000000000000000000000000815260040161108790611d8c565b60405180910390fd5b60026004600086815260200190815260200160002060003373ffffffffffffffffffffffffffffffffffffffff1673ffffffffffffffffffffffffffffffffffffffff16815260200190815260200160002060006101000a81548160ff02191690836002811115611104576111036118ca565b5b0217905550833373ffffffffffffffffffffffffffffffffffffffff167f8dc2b2096831716168cffd747478656d933f1e8e905500aa02153f1c5008c50260405160405180910390a350505050565b60025481565b8060038054905081106111a1576040517f08c379a000000000000000000000000000000000000000000000000000000000815260040161119890611cf1565b60405180910390fd5b81600060028111156111b6576111b56118ca565b5b600382815481106111ca576111c9611d11565b5b906000526020600020906005020160040160009054906101000a900460ff1660028111156111fb576111fa6118ca565b5b1461123b576040517f08c379a000000000000000000000000000000000000000000000000000000000815260040161123290611d8c565b60405180910390fd5b600254611247846113e8565b1015611288576040517f08c379a000000000000000000000000000000000000000000000000000000000815260040161127f90611f9d565b60405180910390fd5b60006003848154811061129e5761129d611d11565b5b9060005260206000209060050201905060018160040160006101000a81548160ff021916908360028111156112d6576112d56118ca565b5b021790555060008160010160009054906101000a900473ffffffffffffffffffffffffffffffffffffffff1673ffffffffffffffffffffffffffffffffffffffff1682600201548360030160405161132e919061205c565b60006040518083038185875af1925050503d806000811461136b576040519150601f19603f3d011682016040523d82523d6000602084013e611370565b606091505b50509050806113b4576040517f08c379a00000000000000000000000000000000000000000000000000000000081526004016113ab906120bf565b60405180910390fd5b847fddb556f1d2c1ec821e910b019d3685b229db152a0ecd517ca7e24b8bd713928960405160405180910390a25050505050565b6000805b6000805490508110156114e3576001600281111561140d5761140c6118ca565b5b60046000858152602001908152602001600020600080848154811061143557611434611d11565b5b9060005260206000200160009054906101000a900473ffffffffffffffffffffffffffffffffffffffff1673ffffffffffffffffffffffffffffffffffffffff1673ffffffffffffffffffffffffffffffffffffffff16815260200190815260200160002060009054906101000a900460ff1660028111156114ba576114b96118ca565b5b14156114d0576001826114cd91906120df565b91505b80806114db90612135565b9150506113ec565b50919050565b8280546114f590611e47565b90600052602060002090601f016020900481019282611517576000855561155e565b82601f1061153057805160ff191683800117855561155e565b8280016001018555821561155e579182015b8281111561155d578251825591602001919060010190611542565b5b50905061156b919061156f565b5090565b5b80821115611588576000816000905550600101611570565b5090565b6000819050919050565b61159f8161158c565b82525050565b60006020820190506115ba6000830184611596565b92915050565b600080fd5b600080fd5b6115d38161158c565b81146115de57600080fd5b50565b6000813590506115f0816115ca565b92915050565b60006020828403121561160c5761160b6115c0565b5b600061161a848285016115e1565b91505092915050565b600073ffffffffffffffffffffffffffffffffffffffff82169050919050565b600061164e82611623565b9050919050565b61165e81611643565b82525050565b60006020820190506116796000830184611655565b92915050565b61168881611643565b811461169357600080fd5b50565b6000813590506116a58161167f565b92915050565b600080fd5b600080fd5b600080fd5b60008083601f8401126116d0576116cf6116ab565b5b8235905067ffffffffffffffff8111156116ed576116ec6116b0565b5b602083019150836001820283011115611709576117086116b5565b5b9250929050565b6000806000806060858703121561172a576117296115c0565b5b600061173887828801611696565b9450506020611749878288016115e1565b935050604085013567ffffffffffffffff81111561176a576117696115c5565b5b611776878288016116ba565b925092505092959194509250565b60006020828403121561179a576117996115c0565b5b60006117a884828501611696565b91505092915050565b60008115159050919050565b6117c6816117b1565b82525050565b60006020820190506117e160008301846117bd565b92915050565b600081519050919050565b600082825260208201905092915050565b6000819050602082019050919050565b61181c8161158c565b82525050565b61182b81611643565b82525050565b600081519050919050565b600082825260208201905092915050565b60005b8381101561186b578082015181840152602081019050611850565b8381111561187a576000848401525b50505050565b6000601f19601f8301169050919050565b600061189c82611831565b6118a6818561183c565b93506118b681856020860161184d565b6118bf81611880565b840191505092915050565b7f4e487b7100000000000000000000000000000000000000000000000000000000600052602160045260246000fd5b6003811061190a576119096118ca565b5b50565b600081905061191b826118f9565b919050565b600061192b8261190d565b9050919050565b61193b81611920565b82525050565b600060a0830160008301516119596000860182611813565b50602083015161196c6020860182611822565b50604083015161197f6040860182611813565b50606083015184820360608601526119978282611891565b91505060808301516119ac6080860182611932565b508091505092915050565b60006119c38383611941565b905092915050565b6000602082019050919050565b60006119e3826117e7565b6119ed81856117f2565b9350836020820285016119ff85611803565b8060005b85811015611a3b5784840389528151611a1c85826119b7565b9450611a27836119cb565b925060208a01995050600181019050611a03565b50829750879550505050505092915050565b60006020820190508181036000830152611a6781846119d8565b905092915050565b600082825260208201905092915050565b6000611a8b82611831565b611a958185611a6f565b9350611aa581856020860161184d565b611aae81611880565b840191505092915050565b611ac281611920565b82525050565b600060a082019050611add6000830188611596565b611aea6020830187611655565b611af76040830186611596565b8181036060830152611b098185611a80565b9050611b186080830184611ab9565b9695505050505050565b60008060408385031215611b3957611b386115c0565b5b6000611b47858286016115e1565b9250506020611b5885828601611696565b9150509250929050565b60038110611b7357611b726118ca565b5b50565b6000819050611b8482611b62565b919050565b6000611b9482611b76565b9050919050565b611ba481611b89565b82525050565b6000602082019050611bbf6000830184611b9b565b92915050565b600082825260208201905092915050565b7f4e6f7420616e206f776e65720000000000000000000000000000000000000000600082015250565b6000611c0c600c83611bc5565b9150611c1782611bd6565b602082019050919050565b60006020820190508181036000830152611c3b81611bff565b9050919050565b7f4e487b7100000000000000000000000000000000000000000000000000000000600052601160045260246000fd5b6000611c7c8261158c565b9150611c878361158c565b925082821015611c9a57611c99611c42565b5b828203905092915050565b7f747820646f6573206e6f74206578697374000000000000000000000000000000600082015250565b6000611cdb601183611bc5565b9150611ce682611ca5565b602082019050919050565b60006020820190508181036000830152611d0a81611cce565b9050919050565b7f4e487b7100000000000000000000000000000000000000000000000000000000600052603260045260246000fd5b7f747820616c726561647920657865637574656400000000000000000000000000600082015250565b6000611d76601383611bc5565b9150611d8182611d40565b602082019050919050565b60006020820190508181036000830152611da581611d69565b9050919050565b7f7478206e6f7420617070726f7665640000000000000000000000000000000000600082015250565b6000611de2600f83611bc5565b9150611ded82611dac565b602082019050919050565b60006020820190508181036000830152611e1181611dd5565b9050919050565b7f4e487b7100000000000000000000000000000000000000000000000000000000600052602260045260246000fd5b60006002820490506001821680611e5f57607f821691505b60208210811415611e7357611e72611e18565b5b50919050565b7f747820616c726561647920617070726f76656400000000000000000000000000600082015250565b6000611eaf601383611bc5565b9150611eba82611e79565b602082019050919050565b60006020820190508181036000830152611ede81611ea2565b9050919050565b7f747820616c72656164792072656a656374656400000000000000000000000000600082015250565b6000611f1b601383611bc5565b9150611f2682611ee5565b602082019050919050565b60006020820190508181036000830152611f4a81611f0e565b9050919050565b7f4e6f7420656e6f75676820617070726f76616c73000000000000000000000000600082015250565b6000611f87601483611bc5565b9150611f9282611f51565b602082019050919050565b60006020820190508181036000830152611fb681611f7a565b9050919050565b600081905092915050565b60008190508160005260206000209050919050565b60008154611fea81611e47565b611ff48186611fbd565b9450600182166000811461200f576001811461202057612053565b60ff19831686528186019350612053565b61202985611fc8565b60005b8381101561204b5781548189015260018201915060208101905061202c565b838801955050505b50505092915050565b60006120688284611fdd565b915081905092915050565b7f5472616e73616374696f6e206661696c65640000000000000000000000000000600082015250565b60006120a9601283611bc5565b91506120b482612073565b602082019050919050565b600060208201905081810360008301526120d88161209c565b9050919050565b60006120ea8261158c565b91506120f58361158c565b9250827fffffffffffffffffffffffffffffffffffffffffffffffffffffffffffffffff0382111561212a57612129611c42565b5b828201905092915050565b60006121408261158c565b91507fffffffffffffffffffffffffffffffffffffffffffffffffffffffffffffffff82141561217357612172611c42565b5b60018201905091905056fea2646970667358221220b00526765c0dd39c5b98a954c3a0a618abd34012764714e88c656d0ed13842df64736f6c634300080a0033",
  "linkReferences": {},
  "deployedLinkReferences": {}
}